:020000001628C0
:0E0006008312031321088A00200882000800DC
:1000140003208A110A128000840AA00A0319A10A83
:08002400F003031D0A28080087
:10002C008316031386013F30831286001530FB00C4
:10003C004B30FC00BE30FD00FD0B2228FC0B2228AF
:10004C00FB0B22280000063086001530FB004B30DD
:10005C00FC00BE30FD00FD0B3128FC0B3128FB0BE6
:10006C00312800005B3086001530FB004B30FC0063
:10007C00BE30FD00FD0B4028FC0B4028FB0B40283C
:10008C0000004F3086001530FB004B30FC00BE30BA
:10009C00FD00FD0B4F28FC0B4F28FB0B4F280000DD
:1000AC00663086001530FB004B30FC00BE30FD0086
:1000BC00FD0B5E28FC0B5E28FB0B5E2800006D30F0
:1000CC0086001530FB004B30FC00BE30FD00FD0BF4
:1000DC006D28FC0B6D28FB0B6D2800007D30860015
:1000EC001530FB004B30FC00BE30FD00FD0B7C28B6
:1000FC00FC0B7C28FB0B7C2800000730860015309D
:10010C00FB004B30FC00BE30FD00FD0B8B28FC0BC4
:10011C008B28FB0B8B2800007F3086001530FB00F2
:10012C004B30FC00BE30FD00FD0B9A28FC0B9A28CE
:10013C00FB0B9A2800006F3086001530FB004B300B
:10014C00FC00BE30FD00FD0BA928FC0BA928FB0B05
:10015C00A9280000773086001530FB004B30FC00DE
:10016C00BE30FD00FD0BB828FC0BB828FB0BB828E3
:10017C0000007C3086001530FB004B30FC00BE309C
:10018C00FD00FD0BC728FC0BC728FB0BC728000084
:10019C00393086001530FB004B30FC00BE30FD00C2
:1001AC00FD0BD628FC0BD628FB0BD62800005E30A6
:1001BC0086001530FB004B30FC00BE30FD00FD0B03
:1001CC00E528FC0BE528FB0BE528000079308600C0
:1001DC001530FB004B30FC00BE30FD00FD0BF4284D
:1001EC00FC0BF428FB0BF428000071308600153052
:1001FC00FB004B30FC00BE30FD00FD0B0329FC0B5B
:0C020C000329FB0B0329000019280B2913
:02400E004A2F37
:00000001FF
