:1000000016EF00F00000000000EF00F0000000001C
:0A0010000000000000000000F3D71C
:10001C000900F5CFE6FF0006FBE10106F9E112004D
:10002C00936A3F0E816E0B0E0B6E260E0C6E5D0EE0
:10003C000D6E0D2EFED70C2EFCD70B2EFAD7000012
:10004C000000060E816E0B0E0B6E260E0C6E5D0EF6
:10005C000D6E0D2EFED70C2EFCD70B2EFAD70000F2
:10006C0000005B0E816E0B0E0B6E260E0C6E5D0E81
:10007C000D6E0D2EFED70C2EFCD70B2EFAD70000D2
:10008C0000004F0E816E0B0E0B6E260E0C6E5D0E6D
:10009C000D6E0D2EFED70C2EFCD70B2EFAD70000B2
:1000AC000000660E816E0B0E0B6E260E0C6E5D0E36
:1000BC000D6E0D2EFED70C2EFCD70B2EFAD7000092
:1000CC0000006D0E816E0B0E0B6E260E0C6E5D0E0F
:1000DC000D6E0D2EFED70C2EFCD70B2EFAD7000072
:1000EC0000007D0E816E0B0E0B6E260E0C6E5D0EDF
:1000FC000D6E0D2EFED70C2EFCD70B2EFAD7000052
:10010C000000070E816E0B0E0B6E260E0C6E5D0E34
:10011C000D6E0D2EFED70C2EFCD70B2EFAD7000031
:10012C0000007F0E816E0B0E0B6E260E0C6E5D0E9C
:10013C000D6E0D2EFED70C2EFCD70B2EFAD7000011
:10014C0000006F0E816E0B0E0B6E260E0C6E5D0E8C
:10015C000D6E0D2EFED70C2EFCD70B2EFAD70000F1
:10016C000000770E816E0B0E0B6E260E0C6E5D0E64
:10017C000D6E0D2EFED70C2EFCD70B2EFAD70000D1
:10018C0000007C0E816E0B0E0B6E260E0C6E5D0E3F
:10019C000D6E0D2EFED70C2EFCD70B2EFAD70000B1
:1001AC000000390E816E0B0E0B6E260E0C6E5D0E62
:1001BC000D6E0D2EFED70C2EFCD70B2EFAD7000091
:1001CC0000005E0E816E0B0E0B6E260E0C6E5D0E1D
:1001DC000D6E0D2EFED70C2EFCD70B2EFAD7000071
:1001EC000000790E816E0B0E0B6E260E0C6E5D0EE2
:1001FC000D6E0D2EFED70C2EFCD70B2EFAD7000051
:10020C000000710E816E0B0E0B6E260E0C6E5D0EC9
:10021C000D6E0D2EFED70C2EFCD70B2EFAD7000030
:06022C000000FFD6FFD721
:020000040030CA
:0D000100231F3CFFBF81FF0FC00FE00F4029
:00000001FF
